{
  "contractName": "PaymentProcesser",
  "abi": [
    {
      "inputs": [
        {
          "internalType": "address",
          "name": "daiadderss",
          "type": "address"
        }
      ],
      "stateMutability": "nonpayable",
      "type": "constructor"
    },
    {
      "anonymous": false,
      "inputs": [
        {
          "indexed": false,
          "internalType": "address",
          "name": "payer",
          "type": "address"
        },
        {
          "indexed": false,
          "internalType": "uint256",
          "name": "amount",
          "type": "uint256"
        },
        {
          "indexed": false,
          "internalType": "uint256",
          "name": "paymentId",
          "type": "uint256"
        },
        {
          "indexed": false,
          "internalType": "uint256",
          "name": "date",
          "type": "uint256"
        }
      ],
      "name": "paymentdone",
      "type": "event"
    },
    {
      "inputs": [],
      "name": "admin",
      "outputs": [
        {
          "internalType": "address",
          "name": "",
          "type": "address"
        }
      ],
      "stateMutability": "view",
      "type": "function"
    },
    {
      "inputs": [],
      "name": "dai",
      "outputs": [
        {
          "internalType": "contract IERC20",
          "name": "",
          "type": "address"
        }
      ],
      "stateMutability": "view",
      "type": "function"
    },
    {
      "inputs": [
        {
          "internalType": "uint256",
          "name": "amount",
          "type": "uint256"
        },
        {
          "internalType": "uint256",
          "name": "paymentId",
          "type": "uint256"
        }
      ],
      "name": "pay",
      "outputs": [],
      "stateMutability": "nonpayable",
      "type": "function"
    }
  ],
  "bytecode": "0x608060405234801561001057600080fd5b5060405161057a38038061057a833981810160405281019061003291906100db565b336000806101000a81548173ffffffffffffffffffffffffffffffffffffffff021916908373ffffffffffffffffffffffffffffffffffffffff16021790555050610108565b600080fd5b600073ffffffffffffffffffffffffffffffffffffffff82169050919050565b60006100a88261007d565b9050919050565b6100b88161009d565b81146100c357600080fd5b50565b6000815190506100d5816100af565b92915050565b6000602082840312156100f1576100f0610078565b5b60006100ff848285016100c6565b91505092915050565b610463806101176000396000f3fe608060405234801561001057600080fd5b50600436106100415760003560e01c8063ef48eee614610046578063f4b9fa7514610062578063f851a44014610080575b600080fd5b610060600480360381019061005b9190610227565b61009e565b005b61006a6101a2565b60405161007791906102e6565b60405180910390f35b6100886101c8565b6040516100959190610322565b60405180910390f35b600160009054906101000a900473ffffffffffffffffffffffffffffffffffffffff1673ffffffffffffffffffffffffffffffffffffffff166323b872dd3360008054906101000a900473ffffffffffffffffffffffffffffffffffffffff16856040518463ffffffff1660e01b815260040161011d9392919061034c565b6020604051808303816000875af115801561013c573d6000803e3d6000fd5b505050506040513d601f19601f8201168201806040525081019061016091906103bb565b507f040a2b6dbfab64456993fb8ad19524b7e9df7e501f6d501dec2e231a8dfde7e73383834260405161019694939291906103e8565b60405180910390a15050565b600160009054906101000a900473ffffffffffffffffffffffffffffffffffffffff1681565b60008054906101000a900473ffffffffffffffffffffffffffffffffffffffff1681565b600080fd5b6000819050919050565b610204816101f1565b811461020f57600080fd5b50565b600081359050610221816101fb565b92915050565b6000806040838503121561023e5761023d6101ec565b5b600061024c85828601610212565b925050602061025d85828601610212565b9150509250929050565b600073ffffffffffffffffffffffffffffffffffffffff82169050919050565b6000819050919050565b60006102ac6102a76102a284610267565b610287565b610267565b9050919050565b60006102be82610291565b9050919050565b60006102d0826102b3565b9050919050565b6102e0816102c5565b82525050565b60006020820190506102fb60008301846102d7565b92915050565b600061030c82610267565b9050919050565b61031c81610301565b82525050565b60006020820190506103376000830184610313565b92915050565b610346816101f1565b82525050565b60006060820190506103616000830186610313565b61036e6020830185610313565b61037b604083018461033d565b949350505050565b60008115159050919050565b61039881610383565b81146103a357600080fd5b50565b6000815190506103b58161038f565b92915050565b6000602082840312156103d1576103d06101ec565b5b60006103df848285016103a6565b91505092915050565b60006080820190506103fd6000830187610313565b61040a602083018661033d565b610417604083018561033d565b610424606083018461033d565b9594505050505056fea264697066735822122024a2716aa50d61911774f44ada125935b27e6f65d68adcd1b99ab60a97a7e33964736f6c634300080f0033",
  "immutableReferences": {},
  "source": "pragma solidity >=0.4.0 <0.9.0;\r\nimport  \"@openzeppelin/contracts/token/ERC20/IERC20.sol\";\r\ncontract PaymentProcesser{\r\n    address public admin;\r\n    IERC20 public dai;\r\n    event paymentdone(\r\n        address payer,\r\n        uint amount,\r\n        uint paymentId,\r\n        uint date\r\n    );\r\n    // constructor  (address adminadress,address daiadderss) public{\r\n    constructor  (address  daiadderss) public{\r\n        admin = msg.sender;\r\n\r\n            //dai=IERC20(daiadderss);\r\n    }\r\n    function pay(uint amount,uint paymentId)external{\r\n        dai.transferFrom(msg.sender,admin,amount);\r\n        emit paymentdone(msg.sender,amount,paymentId,block.timestamp);\r\n\r\n    }\r\n}\r\n",
  "sourcePath": "E:\\hackathon 5.0\\contracts\\PaymentProcessor.sol",
  "compiler": {
    "name": "solc",
    "version": "0.8.15+commit.e14f2714.Emscripten.clang"
  },
  "schemaVersion": "3.4.8",
  "updatedAt": "2022-07-24T01:40:46.791Z",
  "devdoc": {
    "kind": "dev",
    "methods": {},
    "version": 1
  },
  "userdoc": {
    "kind": "user",
    "methods": {},
    "version": 1
  }
}